{
  "transactions": [
    {
      "hash": "0x88806d8e204e3e2be3adcff443ca1ef7e3a83e40411c4b02ddc9b17051987d40",
      "transactionType": "CALL",
      "contractName": null,
      "contractAddress": "0x6e3ff3d77d4cb7ae4b2f4c5112240596e37526da",
      "function": "setSubdomainOwnerDelegation(bool,bool)",
      "arguments": [
        "true",
        "true"
      ],
      "transaction": {
        "from": "0x88885273eb613ea095e2e63cbe9385c22c380f71",
        "to": "0x6e3ff3d77d4cb7ae4b2f4c5112240596e37526da",
        "gas": "0x8eef",
        "value": "0x0",
        "input": "0xfa93a64400000000000000000000000000000000000000000000000000000000000000010000000000000000000000000000000000000000000000000000000000000001",
        "nonce": "0xb",
        "chainId": "0xaa37dc"
      },
      "additionalContracts": [],
      "isFixedGasLimit": false
    }
  ],
  "receipts": [
    {
      "status": "0x1",
      "cumulativeGasUsed": "0x265552",
      "logs": [],
      "logsBloom": "0x00000000000000000000000000000000000000000000000000000000000000000000000000000000000000000000000000000000000000000000000000000000000000000000000000000000000000000000000000000000000000000000000000000000000000000000000000000000000000000000000000000000000000000000000000000000000000000000000000000000000000000000000000000000000000000000000000000000000000000000000000000000000000000000000000000000000000000000000000000000000000000000000000000000000000000000000000000000000000000000000000000000000000000000000000000000",
      "type": "0x2",
      "transactionHash": "0x88806d8e204e3e2be3adcff443ca1ef7e3a83e40411c4b02ddc9b17051987d40",
      "transactionIndex": "0x3",
      "blockHash": "0x8249c347f857a6fb0cb7d33d6c6236e132d76201d354cbf7ccac5f2e37070453",
      "blockNumber": "0x1733911",
      "gasUsed": "0x677c",
      "effectiveGasPrice": "0xf4341",
      "from": "0x88885273eb613ea095e2e63cbe9385c22c380f71",
      "to": "0x6e3ff3d77d4cb7ae4b2f4c5112240596e37526da",
      "contractAddress": null,
      "l1BaseFeeScalar": "0x1db0",
      "l1BlobBaseFee": "0x190eaf73cf",
      "l1BlobBaseFeeScalar": "0xd2730",
      "l1Fee": "0x87e5b3034f0",
      "l1GasPrice": "0x12f65b040",
      "l1GasUsed": "0x640"
    }
  ],
  "libraries": [],
  "pending": [],
  "returns": {},
  "timestamp": 1740459472,
  "chain": 11155420,
  "commit": "d27864a"
}