{
  "transactions": [
    {
      "hash": "0x749dd5a70925ecd273d7a3768f9c163886714b19fe835e859696b23048ece976",
      "transactionType": "CALL",
      "contractName": null,
      "contractAddress": "0x5b2fb670234e52cb735d759dae11c9bef7bed01e",
      "function": "setSubdomainOwnerDelegation(bool,bool)",
      "arguments": [
        "true",
        "true"
      ],
      "transaction": {
        "from": "0x88885273eb613ea095e2e63cbe9385c22c380f71",
        "to": "0x5b2fb670234e52cb735d759dae11c9bef7bed01e",
        "gas": "0x8eef",
        "value": "0x0",
        "input": "0xfa93a64400000000000000000000000000000000000000000000000000000000000000010000000000000000000000000000000000000000000000000000000000000001",
        "nonce": "0x17",
        "chainId": "0xa"
      },
      "additionalContracts": [],
      "isFixedGasLimit": false
    }
  ],
  "receipts": [
    {
      "status": "0x1",
      "cumulativeGasUsed": "0xac9a15",
      "logs": [],
      "logsBloom": "0x00000000000000000000000000000000000000000000000000000000000000000000000000000000000000000000000000000000000000000000000000000000000000000000000000000000000000000000000000000000000000000000000000000000000000000000000000000000000000000000000000000000000000000000000000000000000000000000000000000000000000000000000000000000000000000000000000000000000000000000000000000000000000000000000000000000000000000000000000000000000000000000000000000000000000000000000000000000000000000000000000000000000000000000000000000000",
      "type": "0x2",
      "transactionHash": "0x749dd5a70925ecd273d7a3768f9c163886714b19fe835e859696b23048ece976",
      "transactionIndex": "0x1c",
      "blockHash": "0x7346e3c86e8831a87e128ce2a2b8102f21c49fd44940a0378c79ce7a40e23ccc",
      "blockNumber": "0x7e7595b",
      "gasUsed": "0x677c",
      "effectiveGasPrice": "0x202f",
      "from": "0x88885273eb613ea095e2e63cbe9385c22c380f71",
      "to": "0x5b2fb670234e52cb735d759dae11c9bef7bed01e",
      "contractAddress": null,
      "l1BaseFeeScalar": "0x146b",
      "l1BlobBaseFee": "0x1",
      "l1BlobBaseFeeScalar": "0xf79c5",
      "l1Fee": "0x14d55a07c",
      "l1GasPrice": "0x27db7740",
      "l1GasUsed": "0x640"
    }
  ],
  "libraries": [],
  "pending": [],
  "returns": {},
  "timestamp": 1740803184,
  "chain": 10,
  "commit": "03b077e"
}