{
  "transactions": [
    {
      "hash": "0xaa46e365fcedae498ae5b6a0a0b53ea6155ce4993bf2b79d5d4951e5377015a8",
      "transactionType": "CALL",
      "contractName": null,
      "contractAddress": "0x5b2fb670234e52cb735d759dae11c9bef7bed01e",
      "function": "setSubdomainOwnerDelegation(bool,bool)",
      "arguments": [
        "true",
        "true"
      ],
      "transaction": {
        "from": "0x88885273eb613ea095e2e63cbe9385c22c380f71",
        "to": "0x5b2fb670234e52cb735d759dae11c9bef7bed01e",
        "gas": "0x8eef",
        "value": "0x0",
        "input": "0xfa93a64400000000000000000000000000000000000000000000000000000000000000010000000000000000000000000000000000000000000000000000000000000001",
        "nonce": "0x16",
        "chainId": "0xa"
      },
      "additionalContracts": [],
      "isFixedGasLimit": false
    }
  ],
  "receipts": [
    {
      "status": "0x1",
      "cumulativeGasUsed": "0x5e9e45",
      "logs": [],
      "logsBloom": "0x00000000000000000000000000000000000000000000000000000000000000000000000000000000000000000000000000000000000000000000000000000000000000000000000000000000000000000000000000000000000000000000000000000000000000000000000000000000000000000000000000000000000000000000000000000000000000000000000000000000000000000000000000000000000000000000000000000000000000000000000000000000000000000000000000000000000000000000000000000000000000000000000000000000000000000000000000000000000000000000000000000000000000000000000000000000",
      "type": "0x2",
      "transactionHash": "0xaa46e365fcedae498ae5b6a0a0b53ea6155ce4993bf2b79d5d4951e5377015a8",
      "transactionIndex": "0xb",
      "blockHash": "0xaa0d9970e9b69e6b7b063aefc80f46959fb45ebd512eaa2122991b005d16c6e7",
      "blockNumber": "0x7e75314",
      "gasUsed": "0x677c",
      "effectiveGasPrice": "0x2d3a",
      "from": "0x88885273eb613ea095e2e63cbe9385c22c380f71",
      "to": "0x5b2fb670234e52cb735d759dae11c9bef7bed01e",
      "contractAddress": null,
      "l1BaseFeeScalar": "0x146b",
      "l1BlobBaseFee": "0x1",
      "l1BlobBaseFeeScalar": "0xf79c5",
      "l1Fee": "0x167d8485c",
      "l1GasPrice": "0x2b06f4c5",
      "l1GasUsed": "0x640"
    }
  ],
  "libraries": [],
  "pending": [],
  "returns": {},
  "timestamp": 1740799969,
  "chain": 10,
  "commit": "6558724"
}